:020000040800F2
:1000000020050020490100089B0C0008EF0B0008A8
:10001000990C0008B50100085D0E00080000000002
:100020000000000000000000000000009F0C00081D
:10003000B7010008000000009D0C0008A10C00089A
:100040006301000863010008630100086301000800
:1000500063010008630100086301000863010008F0
:1000600063010008630100086301000863010008E0
:1000700063010008630100086301000863010008D0
:1000800063010008630100086301000863010008C0
:1000900063010008630100086301000863010008B0
:1000A00063010008630100086301000863010008A0
:1000B0006301000863010008630100086301000890
:1000C0006301000863010008630100086301000880
:1000D00063010008110E00086301000863010008B5
:1000E0006301000863010008630100086301000860
:1000F0006301000863010008630100086301000850
:10010000630100086301000863010008630100083F
:10011000630100086301000863010008630100082F
:10012000630100086301000863010008630100081F
:10013000DFF810D000F02CF8004800479D0E0008B2
:10014000AFF300802005002006488047064800479E
:10015000FEE7FEE7FEE7FEE7FEE7FEE7FEE7FEE777
:10016000FEE7FEE7F30C000831010008D2B201E01F
:1001700000F8012B491EFBD270470022F6E710B5AC
:1001800013460A4604461946FFF7F0FF204610BD05
:10019000064C074D06E0E06840F0010394E80700D4
:1001A00098471034AC42F6D3FFF7C6FF0C0F000897
:1001B0002C0F0008FEE770477047000070B504463A
:1001C00000F018F90546601C02D004480078044489
:1001D00000F010F9401BA042FAD370BD04000020CB
:1001E0002DE9F84FDFF8C891002409F1040A0AF15B
:1001F000040B23460F270BF1040ED1E00125A54087
:1002000006EA0502AA4276D1DFF8A8C14E68A6EB3D
:100210000C0866452BD00DDC032E34D005DC36B33C
:10022000012E19D0022E2FD11BE0112E16D0122E26
:100230002AD119E0B8F5881F19D006DCB8F5803F3F
:1002400015D0B8F5801F1FD111E0B8F5001F0ED0F2
:10025000B8F5041F18D10AE0CB6815E0CB681B1D68
:1002600012E0CB6808330FE0CB680C330CE08B68EE
:100270002BB1012B4FF0080303D0456104E00423A8
:1002800002E0056100E00023FF2A01D8064601E0F4
:1002900000F104064FEA840501D9A5F12005D6F83E
:1002A000008007FA05FC28EA0C0803FA05F548EA7D
:1002B0000508C6F800804D68ED0070D53E4DAE696A
:1002C00046F00106AE61AD6924F0030605F00105B4
:1002D00000953A4D06EB050CDCF80850A607360FE2
:1002E00007FA06F825EA0805DFF8D480404503D16F
:1002F0004FF0000825E052E0DFF8C880404502D109
:100300004FF001081DE0DFF8C080404502D14FF0FA
:10031000020816E0DFF8B480404502D14FF0030830
:100320000FE0DFF8AC80404502D14FF0040808E050
:10033000DFF8A080404502D14FF0050801E04FF002
:10034000060808FA06F848EA0508CCF808804D685F
:10035000D9F80060ED034D4601D5164300E0964301
:100360002E604D68DAF80060AD03554601D516439E
:1003700000E096432E604D68DBF80060ED025D46BC
:1003800001D5164300E096432E604D68DEF800600C
:10039000AD02754601D5164300E096432E60641CFD
:1003A0000A681646E2407FF429AFBDE8F88F0000E6
:1003B0000004014000001110001002400000014044
:1003C00000080140000C01400010014000140140F1
:1003D00000180140001C0140C26821EA02030A40E3
:1003E00043EA0241016170470AB1016170470904A3
:1003F000FBE700000148806870470000040000200F
:10040000024881680278114481607047040000202E
:10041000074810B5016841F010010160032000F0A9
:1004200079F8002000F006F800F024F8002010BD54
:100430000020024070B50D4D04464FF47A712878C3
:10044000B1FBF0F00A490968B1FBF0F000F0F0FAF6
:1004500048B9102C07D200222146501E00F03AF86D
:1004600000206C6070BD012070BD00000400002001
:10047000100000200E4808B5816941F0010181613A
:10048000816901F001010091C16941F08051C161B0
:10049000C06900F080500090052000F03BF805484E
:1004A000416821F0E06141F00071416008BD000049
:1004B0000010024000000140002809DB00F01F028C
:1004C000012191404009800000F1E020C0F80011B6
:1004D00070470000F0B40E4B1B680C46C3F30223B8
:1004E000C3F10705042D00D90425191D072901D2E0
:1004F000002300E0DB1E012606FA05F1491E21401B
:1005000099409E40761E16403143F0BC00F0A7BCD7
:100510000CED00E0064900F0070208684FF6FF0303
:10052000184040EA0220034A104308607047000068
:100530000CED00E00000FA052DE9F0470F4605003C
:1005400061D0434E306800F00700B84209D23068ED
:1005500020F0070038433060306800F00700B842F0
:1005600051D128683B4C810712D5400703D56068FC
:1005700040F4E06060602878000703D5606840F4CC
:10058000605060606068A96820F0F0000843606017
:100590002878C00728D06868012810D02168022870
:1005A00010D0890700292EDA616821F00301014388
:1005B0006160FFF71FFF804641F288390DE0216836
:1005C0008903EFE78901EDE7FFF714FFA0EB0801CE
:1005D000494502D90320BDE8F0876068696800F0EA
:1005E0000C00B0EB810FEFD1306800F00700B8428B
:1005F0000BD9306820F0070038433060306800F0D5
:100600000700B84201D00120E5E72878400705D56A
:100610006068E96820F4E0600843606028780007BB
:1006200006D56068296920F4605040EAC100606026
:1006300000F038F86168084AC1F30311515CC84002
:100640000649086006480068FFF7F4FE0020C2E78C
:100650000020024000100240F40E000810000020AC
:10066000080000200448054900684968044AC1F3AD
:100670000221515CC8407047100000200010024069
:10068000040F00080448054900684968044AC1F39A
:10069000C221515CC8407047100000200010024089
:1006A000040F000812A185B00FC98DE80F0014A037
:1006B000144A006804905168134801F00C03042B9D
:1006C00010D0082B0ED1C1F38343C9031DF80300DA
:1006D0000AD5516804AAC1F34041515C0A4A50430B
:1006E000B0FBF1F005B0704708494843FAE7000055
:1006F00002030405060708090A0B0C0D0E0F101063
:10070000010200000010024000127A0000093D00C2
:100710002DE9F84F040070D02078C04DC00749D0B3
:100720006868C0F38100012807D06868C0F38100C1
:10073000022809D16868C00306D52868800339D526
:1007400060680028E7D035E06068B0F5803F0BD0E6
:1007500010B1B0F5A02F11D0286820F480302860A7
:10076000286820F4802002E0286840F48030286067
:10077000606890B1FFF73EFE06460AE0286840F444
:1007800080202860F0E700BFFFF734FE801B64285C
:1007900073D828688003F7D50CE0FFF72BFE0646D8
:1007A00005E000BFFFF726FE801B6428F0D828680C
:1007B0008003F7D420789A4E80074FF001094FF05C
:1007C000000839D5686810F00C0F07D06868C0F3CE
:1007D0008100022809D16868C00306D42868800710
:1007E00014D52069012808D110E02069B0B1C6F8FD
:1007F0000090FFF7FFFD074605E00AE1FFF7FAFD6D
:10080000C01B0228C4D828688007F7D5286861690A
:1008100020F0F80040EAC10028600DE0C6F8008032
:10082000FFF7E8FD074604E0FFF7E4FDC01B0228E0
:1008300023D828688007F7D4207800072CD579487A
:10084000A169D9B1C0F80090FFF7D4FD074604E0D4
:10085000FFF7D0FDC01B02280FD8686A8007F7D5C4
:1008600071484FF4FA510068B0FBF1F0009000BFFE
:100870000098411E0091FAD20EE080E0C0F800809E
:10088000FFF7B8FD074604E0FFF7B4FDC01B0228E0
:1008900075D8686A8007F7D42078400760D5E86982
:1008A0000027C00008D4E86940F08050E861E8699A
:1008B000012700F0805000905C480168C90513D4FE
:1008C0000168834641F480710160FFF793FD824621
:1008D00006E000BFFFF78EFDA0EB0A0064284ED8AB
:1008E000DBF80000C005F5D5E06801280AD008B1A2
:1008F000052813D0286A20F001002862286A20F019
:10090000040002E0286A40F001002862E06841F239
:10091000883B98B1FFF76EFD82460BE0286A40F0F5
:1009200004002862EEE700BFFFF764FDA0EB0A01B8
:1009300059455AD8286A8007F6D50CE0FFF75AFDCA
:10094000824605E0FFF756FDA0EB0A0159454CD859
:10095000286A8007F6D41FB1E86920F08050E8616A
:10096000E06988B36968C1F38101022944D0022893
:10097000C6F8608004D0FFF73DFD044638E034E05F
:10098000FFF738FD074604E0FFF734FDC01B0228DF
:100990002BD828688001F7D4206AB0F5803F05D1B4
:1009A0006868A16820F4003008436860D4E9080151
:1009B0000843696821F4741108436860C6F86090C0
:1009C000FFF718FD044606E025E000BFFFF712FD23
:1009D000001B022809D828688001F7D51BE000BF5A
:1009E000FFF708FD001B022802D90320BDE8F88F9D
:1009F00028688001F4D40EE00128F7D06868226AE4
:100A000000F48031914204D1616A00F47010884290
:100A100001D00120EAE70020E8E7000000100240D2
:100A2000000042428004424210000020007000405A
:100A300010B5401EB0F1807F01D3012010BD4FF0F2
:100A4000E02460610F21601700F009FA0020A06126
:100A500007202061002010BD70B5040004D094F878
:100A60003D00002510B106E0012070BD84F83C5027
:100A7000204600F023F8242084F83D002068C16857
:100A800021F40051C160204600F034F9206801696A
:100A900021F4904101612068416921F02A014161FE
:100AA0002068C16841F40051C1602564202084F8A9
:100AB0003D0084F83E00002070BD000030B585B0D8
:100AC0000024009401940294039400681849884219
:100AD0002CD11848816941F480418161816901F418
:100AE00080410491816941F0040181618069124D66
:100AF00000F0040004904FF4007000900220019078
:100B00000320039069462846FFF76AFB2815CDE9C4
:100B10000004694628460294FFF762FB0122114651
:100B20002520FFF7D7FC2520FFF7C6FC05B030BD18
:100B30000038014000100240000801402DE9F84350
:100B4000044690F83D001F4616460D4620284CD11D
:100B5000C5B1BEB194F83C00012846D0012084F80C
:100B60003C004FF00008C4F84080212084F83D008C
:100B7000FFF740FCA6848146E684A068B0F5805F5C
:100B800003D004E00120BDE8F883206928B12E4697
:100B90005FF0000584F83C800EE00026FAE7802133
:100BA000204600F003F9A0B9AEB116F8010B216898
:100BB0004860E08C401EE084E08C4B464FF0000221
:100BC00000970028EBD14FF04001204600F0EEF8EE
:100BD00030B10320D7E735F8020BC0F30800E6E791
:100BE000202084F83D000020CDE70220CBE7FEE77F
:100BF00010B586B000200090019002900390164836
:100C0000816941F010018161816901F01001049155
:100C1000816941F004018161816901F0040104915D
:100C2000816941F00801816180690C4C00F0080085
:100C30000490012220212046FFF7D6FB202001212D
:100C4000CDE900010320CDE9021069462046FFF7F7
:100C5000C7FA06B010BD000000100240000C0140B1
:100C60000C4810B50A4901604FF4E13141600021A0
:100C700081600C22C160C0E904128161C161FFF78B
:100C8000EBFE002803D0BDE81040FFF795BA10BD79
:100C900000380140DC000020FEE7704770477047D5
:100CA000FFF7AEBB30B58FB028216846FFF765FA75
:100CB00014210AA8FFF761FA01210804CDE9001008
:100CC0000024029402250491CDE907504FF4E0106E
:100CD00009906846FFF71CFD0F20CDE90A05680260
:100CE000CDE90C4002210AA80E94FFF725FC0FB0B5
:100CF00030BD704770B5044600680169E26821F4B0
:100D00004051114301612169A068084361690843AA
:100D10002168CA6841F20C639A430243CA602068A2
:100D20004169A26921F44071114341611E49206863
:100D3000884202D1FFF7A6FC01E0FFF793FC00EB2D
:100D4000C00101EB0012606864218000B2FBF0F387
:100D5000B3FBF1F36FF018067343B2FBF0F5B2FB8F
:100D6000F0F605EB8305322303EB0515B5FBF1F532
:100D7000B6FBF1F605F0F00505EB0615B2FBF0F653
:100D8000B2FBF0F0B0FBF1F06FF01802504306EB4D
:100D9000800003EB0010B0FBF1F0216800F00F00C1
:100DA0002844886070BD0000003801402DE9F04102
:100DB000984617460E460446069D1DE0681C1BD04B
:100DC0002DB1FFF717FBA0EB0800A84214D920684B
:100DD000C16821F4D071C1602068416921F001012E
:100DE0004161202084F83D0084F83E00002084F812
:100DF0003C000320BDE8F0812068006836EA00006E
:100E000004D00020B842D9D00020F3E70120F9E750
:100E100030B50D4802681068C043800612D40B48F4
:100E200000680B4BC1B2187848B90B4C094D0D291D
:100E30002078295401D101211970401C20706FF0D5
:100E40002000106030BD0000DC00002004380140AC
:100E5000000000201400002001000020FEE7090728
:100E6000090E002804DB00F1E02080F80014704730
:100E700000F00F0000F1E02080F8141D704702E040
:100E800008C8121F08C1002AFAD170477047002015
:100E900001E001C1121F002AFBD17047FFF7B8FA29
:100EA000FFF700FFFFF7A4FEFFF7DAFE0C4F0D4E31
:100EB0000D4C00254FF47A7820213846FFF78CFA44
:100EC000C820FFF77BF930780128F5D14346227816
:100ED00006490748FFF732FE25703570ECE7000041
:100EE000000C014000000020010000201400002040
:100EF000DC000020000000000000000001020304EC
:100F00000607080900000000010203042C0F000876
:100F100000000020140000007E0E0008400F0008B2
:100F2000140000200C0500008E0E000800000000D8
:100F30000100000010000000000000000024F40088
:0400000508000131BD
:00000001FF
