:020000040800F2
:1000000068060020CD0100089504000801040008DE
:10001000910400088702000809060008000000009B
:10002000000000000000000000000000B90400080B
:100030008B0200080000000097040008A5050008D6
:10004000E7010008E7010008E7010008E7010008F0
:10005000E7010008E7010008E7010008E7010008E0
:10006000E7010008E7010008E7010008E7010008D0
:10007000E7010008E7010008E7010008E7010008C0
:10008000E7010008E7010008E7010008E7010008B0
:10009000E7010008E7010008E7010008E7010008A0
:1000A000E7010008E7010008E7010008E701000890
:1000B000E7010008E7010008E7010008E701000880
:1000C000E7010008E7010008E7010008E701000870
:1000D000E7010008E7010008E7010008E701000860
:1000E000E7010008E7010008E7010008E701000850
:1000F000E7010008E7010008E7010008E701000840
:10010000E7010008E7010008E7010008E70100082F
:10011000E7010008E7010008E7010008E70100081F
:10012000E7010008E7010008E7010008E70100080F
:1001300000F002F800F03AF80AA090E8000C8244BF
:100140008344AAF10107DA4501D100F02FF8AFF29C
:10015000090EBAE80F0013F0010F18BFFB1A43F0A5
:1001600001031847BC050000DC050000103A24BF5D
:1001700078C878C1FAD8520724BF30C830C144BF0C
:1001800004680C607047000000230024002500264E
:10019000103A28BF78C1FBD8520728BF30C148BFEA
:1001A0000B6070471FB51FBD10B510BD00F031F8D2
:1001B0001146FFF7F7FF00F06BFA00F04FF803B4B9
:1001C000FFF7F2FF03BC00F057F800000948804732
:1001D00009480047FEE7FEE7FEE7FEE7FEE7FEE729
:1001E000FEE7FEE7FEE7FEE704480549054A064B41
:1001F00070470000A90500083101000868000020D0
:1002000068060020680200206802002070477047DE
:100210007047754600F02CF8AE4605006946534617
:1002200020F00700854618B020B5FFF7DDFFBDE8D8
:1002300020404FF000064FF000074FF000084FF04D
:10024000000B21F00701AC46ACE8C009ACE8C009DE
:10025000ACE8C009ACE8C0098D46704710B504464B
:10026000AFF300802046BDE81040FFF7A8BF0000B4
:10027000004870470400002001491820ABBEFEE78B
:1002800026000200704700BFFEE770470CE00B211C
:10029000BE2200BF00BF531EDBB21A1EFBD14B1E95
:1002A000DBB2191EF6D100BF011EA0F10100EED194
:1002B0007047002109E0002201E0531C9AB242F28B
:1002C000E8339A42F9DB4B1C99B28142F3DB704769
:1002D0002DE9F041024600250026002000230024DD
:1002E000002791F803C00CF00F0591F803C00CF043
:1002F000100CBCF1000F03D091F802C04CEA0505C8
:1003000091F800C0BCF1000F31D0146800202BE040
:100310004FF0010C0CFA00F3B1F800C00CEA030630
:100320009E4220D183004FF00F0C0CFA03F7BC4320
:1003300005FA03FC4CEA040491F803C0BCF1280F51
:1003400006D14FF0010C0CFA00FCC2F814C00AE010
:1003500091F803C0BCF1480F05D14FF0010C0CFA25
:1003600000FCC2F810C0401C0828D1D31460B1F8BA
:1003700000C0BCF1FF0F34DD546800202EE000F116
:10038000080C4FF0010808FA0CF3B1F800C00CEAB1
:1003900003069E4221D183004FF00F0C0CFA03F7A5
:1003A000BC4305FA03FC4CEA040491F803C0BCF119
:1003B000280F05D100F1080C08FA0CF8C2F81480D7
:1003C00091F803C0BCF1480F07D100F1080C4FF0C1
:1003D000010808FA0CF8C2F81080401C0828CED397
:1003E0005460BDE8F0810246002093680B400BB1D9
:1003F000012000E0002070474161704701617047B3
:1004000000BFFEE708B50121402000F045F81820A4
:10041000ADF8000048208DF8030069460148FFF759
:1004200057FF08BD0018014008B50121082000F061
:1004300033F82020ADF8000010208DF803000220D2
:100440008DF8020069460448FFF742FF2021024868
:10045000FFF7D4FF08BD0000000C014008B50121E2
:10046000402000F019F810208DF803002020ADF88E
:10047000000002208DF8020069460448FFF728FFBB
:1004800020210248FFF7BAFF08BD00000018014014
:1004900000BFFEE77047704729B1064A92690243E0
:1004A000044B9A6104E0034A92698243014B9A61CA
:1004B0007047000000100240704710B500F002F8CD
:1004C00010BD00000CB5002001900090334800687A
:1004D00040F480303149086000BF3048006800F4C3
:1004E000003000900198401C0190009818B90198C4
:1004F000B0F5A06FF1D12948006800F4003010B1C8
:100500000120009001E0002000900098012843D1D4
:100510002348006840F01000214908600846006840
:1005200020F0030008600846006840F00200086000
:100530001A484068194948600846406848600846BB
:10054000406840F4806048600846406820F47C10B1
:1005500048600846406840F4E81048600846006873
:1005600040F08070086000BF0C48006800F0007028
:100570000028F9D00948406820F003000749486086
:100580000846406840F00200486000BF03484068E9
:1005900000F00C000828F9D10CBD0000001002404A
:1005A000002002407047000010B51348006840F07A
:1005B00001001149086008464068104908400E498A
:1005C0004860084600680E4908400B490860084624
:1005D000006820F4802008600846406820F4FE008F
:1005E00048604FF41F008860FFF767FF4FF000601E
:1005F0000449086010BD0000001002400000FFF830
:10060000FFFFF6FE08ED00E000BFFEE770B5044610
:10061000FFF7F8FE10211D48FFF7E5FE08B9012598
:1006200000E0002508211948FFF7DDFE08B9012088
:1006300000E00020054325B31420FFF73AFE102107
:100640001248FFF7D0FE58B900BF10210F48FFF73E
:10065000CAFE0028F9D01420FFF72BFE002070BD41
:1006600008210A48FFF7BFFE68B900BF0821074804
:10067000FFF7B9FE0028F9D01420FFF71AFE012079
:10068000EDE72046EBE700BFE9E700000018014076
:10069000FFF7CAFEFFF7E2FE3AE01E480078FFF7D8
:1006A000B5FF1C4908700846007810B101282ED10A
:1006B00014E020211848FFF7A1FE20211748FFF77A
:1006C0009DFE4FF4FA70FFF7E1FD20211348FFF77C
:1006D00093FE4FF4FA70FFF7D9FD18E020210E4881
:1006E000FFF78CFE20210D48FFF786FE4FF4FA70CD
:1006F000FFF7CCFD20210948FFF780FE20210648A6
:10070000FFF77AFE4FF4FA70FFF7C0FD00BF00BF9D
:10071000C3E700000000002000180140000C014069
:100720004007000800000020040000006C010008E1
:100730004407000804000020640600008801000847
:0407400001000000B4
:0400000508000131BD
:00000001FF
